{
  "contractName": "Oracle",
  "abi": [
    {
      "inputs": [
        {
          "internalType": "address",
          "name": "_admin",
          "type": "address"
        }
      ],
      "stateMutability": "nonpayable",
      "type": "constructor"
    },
    {
      "inputs": [],
      "name": "admin",
      "outputs": [
        {
          "internalType": "address",
          "name": "",
          "type": "address"
        }
      ],
      "stateMutability": "view",
      "type": "function",
      "constant": true
    },
    {
      "inputs": [
        {
          "internalType": "bytes32",
          "name": "",
          "type": "bytes32"
        }
      ],
      "name": "data",
      "outputs": [
        {
          "internalType": "uint256",
          "name": "date",
          "type": "uint256"
        },
        {
          "internalType": "uint256",
          "name": "payload",
          "type": "uint256"
        }
      ],
      "stateMutability": "view",
      "type": "function",
      "constant": true
    },
    {
      "inputs": [
        {
          "internalType": "address",
          "name": "",
          "type": "address"
        }
      ],
      "name": "reporters",
      "outputs": [
        {
          "internalType": "bool",
          "name": "",
          "type": "bool"
        }
      ],
      "stateMutability": "view",
      "type": "function",
      "constant": true
    },
    {
      "inputs": [
        {
          "internalType": "address",
          "name": "reporter",
          "type": "address"
        },
        {
          "internalType": "bool",
          "name": "isReporter",
          "type": "bool"
        }
      ],
      "name": "updateReporter",
      "outputs": [],
      "stateMutability": "nonpayable",
      "type": "function"
    },
    {
      "inputs": [
        {
          "internalType": "bytes32",
          "name": "key",
          "type": "bytes32"
        },
        {
          "internalType": "uint256",
          "name": "payload",
          "type": "uint256"
        }
      ],
      "name": "updateData",
      "outputs": [],
      "stateMutability": "nonpayable",
      "type": "function"
    },
    {
      "inputs": [
        {
          "internalType": "bytes32",
          "name": "key",
          "type": "bytes32"
        }
      ],
      "name": "getData",
      "outputs": [
        {
          "internalType": "bool",
          "name": "result",
          "type": "bool"
        },
        {
          "internalType": "uint256",
          "name": "date",
          "type": "uint256"
        },
        {
          "internalType": "uint256",
          "name": "payload",
          "type": "uint256"
        }
      ],
      "stateMutability": "view",
      "type": "function",
      "constant": true
    }
  ],
  "bytecode": "0x608060405234801561001057600080fd5b506040516105e03803806105e08339818101604052602081101561003357600080fd5b8101908080519060200190929190505050806000806101000a81548173ffffffffffffffffffffffffffffffffffffffff021916908373ffffffffffffffffffffffffffffffffffffffff1602179055505061054c806100946000396000f3fe608060405234801561001057600080fd5b50600436106100625760003560e01c80630147fb0c146100675780631ec6e24f146100b05780632cc1cd9e1461010057806354f6127f1461015a578063a8200ab7146101ac578063f851a440146101e4575b600080fd5b6100936004803603602081101561007d57600080fd5b8101908080359060200190929190505050610218565b604051808381526020018281526020019250505060405180910390f35b6100fe600480360360408110156100c657600080fd5b81019080803573ffffffffffffffffffffffffffffffffffffffff16906020019092919080351515906020019092919050505061023c565b005b6101426004803603602081101561011657600080fd5b81019080803573ffffffffffffffffffffffffffffffffffffffff169060200190929190505050610358565b60405180821515815260200191505060405180910390f35b6101866004803603602081101561017057600080fd5b8101908080359060200190929190505050610378565b604051808415158152602001838152602001828152602001935050505060405180910390f35b6101e2600480360360408110156101c257600080fd5b8101908080359060200190929190803590602001909291905050506103e9565b005b6101ec6104f2565b604051808273ffffffffffffffffffffffffffffffffffffffff16815260200191505060405180910390f35b60026020528060005260406000206000915090508060000154908060010154905082565b60008054906101000a900473ffffffffffffffffffffffffffffffffffffffff1673ffffffffffffffffffffffffffffffffffffffff163373ffffffffffffffffffffffffffffffffffffffff16146102fd576040517f08c379a000000000000000000000000000000000000000000000000000000000815260040180806020018281038252600a8152602001807f6f6e6c792061646d696e0000000000000000000000000000000000000000000081525060200191505060405180910390fd5b80600160008473ffffffffffffffffffffffffffffffffffffffff1673ffffffffffffffffffffffffffffffffffffffff16815260200190815260200160002060006101000a81548160ff0219169083151502179055505050565b60016020528060005260406000206000915054906101000a900460ff1681565b600080600080600260008681526020019081526020016000206000015414156103ab5760008060009250925092506103e2565b6001600260008681526020019081526020016000206000015460026000878152602001908152602001600020600101549250925092505b9193909250565b60011515600160003373ffffffffffffffffffffffffffffffffffffffff1673ffffffffffffffffffffffffffffffffffffffff16815260200190815260200160002060009054906101000a900460ff161515146104af576040517f08c379a000000000000000000000000000000000000000000000000000000000815260040180806020018281038252600d8152602001807f6f6e6c79207265706f727465720000000000000000000000000000000000000081525060200191505060405180910390fd5b6040518060400160405280428152602001828152506002600084815260200190815260200160002060008201518160000155602082015181600101559050505050565b60008054906101000a900473ffffffffffffffffffffffffffffffffffffffff168156fea26469706673582212200e41bc7cf02efb51a902d6f2857773abe12e02cbfc11e00d201eb7c836bc0a7964736f6c63430007030033",
  "immutableReferences": {},
  "source": "pragma solidity ^0.7.3;\r\n\r\ncontract Oracle {\r\n    struct Data {\r\n        uint date;\r\n        uint payload;\r\n    }\r\n    address public admin;\r\n    mapping(address => bool) public reporters;\r\n    mapping(bytes32 => Data) public data;\r\n\r\n    constructor(address _admin) {\r\n        admin = _admin;\r\n    }\r\n\r\n    function updateReporter(address reporter, bool isReporter) external {\r\n        require(msg.sender == admin, \"only admin\");\r\n        reporters[reporter] = isReporter;\r\n    }\r\n\r\n    function updateData(bytes32 key, uint payload) external {\r\n        require(reporters[msg.sender] == true, \"only reporter\");\r\n        data[key] = Data(block.timestamp, payload);\r\n    }\r\n\r\n    function getData(bytes32 key) external view returns(bool result, uint date, uint payload) {\r\n        if (data[key].date == 0) {\r\n            return (false, 0, 0);\r\n        }\r\n        return (true, data[key].date, data[key].payload);\r\n    }\r\n}",
  "sourcePath": "C:\\Web3\\defi-mastery\\oracles\\contracts\\Oracle.sol",
  "compiler": {
    "name": "solc",
    "version": "0.7.3+commit.9bfce1f6.Emscripten.clang"
  },
  "schemaVersion": "3.4.10",
  "updatedAt": "2022-10-18T19:14:48.050Z",
  "networkType": "ethereum",
  "devdoc": {
    "kind": "dev",
    "methods": {},
    "version": 1
  },
  "userdoc": {
    "kind": "user",
    "methods": {},
    "version": 1
  }
}